:020000040800F2
:10000000C00D0020F902000899540008D14E0008E4
:10001000F9510008AD280008F55F00080000000055
:10002000000000000000000000000000C7560008AB
:10003000832A000800000000C55600086957000820
:100040001303000813030008130300081303000838
:100050001303000813030008130300081303000828
:100060001303000813030008130300081303000818
:100070001303000813030008130300081303000808
:10008000592900086929000813030008E12800081D
:10009000B1280008C1280008D1280008130300086F
:1000A00013030008130300081303000813030008D8
:1000B00013030008130300081303000813030008C8
:1000C00013030008130300081303000813030008B8
:1000D0001303000813030008E55F0008130300087A
:1000E0001303000813030008130300081303000898
:1000F0001303000813030008130300081303000888
:100100001303000813030008130300081303000877
:1001100013030008130300084158000813030008E4
:100120001303000813030008130300081303000857
:100130001303000813030008130300081303000847
:100140001303000813030008130300081303000837
:100150001303000813030008130300081303000827
:100160001303000813030008130300081303000817
:100170001303000813030008130300080000000025
:1001800013030008130300081303000813030008F7
:1001900013030008130300081303000813030008E7
:1001A00000000000000000001303000800F002F847
:1001B00000F092F80AA090E8000C82448344AAF16F
:1001C0000107DA4501D100F087F8AFF2090EBAE86D
:1001D0000F0013F0010F18BFFB1A43F0010318477B
:1001E0002C6B00004C6B0000103A24BF78C878C11B
:1001F000FAD8520724BF30C830C144BF04680C602D
:10020000704700000023002400250026103A28BF74
:1002100078C1FBD8520728BF30C148BF0B60704778
:100220006E2900F00582702900F04783662906F0E8
:100230005D84652906F05A84672906F05784612990
:1002400006F0568403681B0A28BF41F08001692923
:1002500000F0B281642900F0AF81752900F0AC8113
:100260006F2900F0D482782900F01383E92900F087
:100270006F82E42900F06C82F52900F06982EF2991
:1002800000F0D182F82900F012830368DB0928BF4F
:1002900041F08001632901F07380732901F07880B7
:1002A000E32901F08380F32901F088800020704762
:1002B0001FB506F00EFC01F0F7F804000020002145
:1002C00006F08EF9401C60600020002106F072F9F3
:1002D000E0601FBD10B510BD01F0B8F81146FFF782
:1002E000E7FF06F033F901F011FC03B4FFF7F2FF6A
:1002F00003BC01F055FC000009488047094800474D
:10030000FEE7FEE7FEE7FEE7FEE7FEE7FEE7FEE7C5
:10031000FEE7FEE704480549054A064B7047000022
:100320002D580008AD010008C0070020C00D0020B6
:10033000C0090020C009002053EA020C00F06980C7
:100340002DE9F04B4FF00006002B1FBFB3FA83F5E9
:1003500003FA05F424FA05F65E4012BF1643B2FA1A
:1003600082F502FA05F4C5F120051EBF22FA05FC4C
:1003700044EA0C04203556EA044C4FEA144418BFF2
:10038000641C4FF000084FF00009904271EB030C21
:1003900039D3002919BFB1FA81F701FA07F6B0FA8B
:1003A00080F700FA07F6C7F120071EBF20FA07FC06
:1003B00046EA0C062037B6FBF4FCA7EB0507103F16
:1003C00007F01F0BCBF120060CFA0BFB2CFA06F6FC
:1003D00044BFB3460026202FA4BF5E464FF0000B5B
:1003E0005BEA060C08BF4FF0010B19EB0B09ABFBE6
:1003F000027C48EB0608C01B06FB02CC0BFB03CCBF
:1004000071EB0C01C1E70B46024641464846BDE888
:10041000F08B13B54FF000004FF00001AFF30080F8
:10042000BDE81C40704700001CB50C46064B7B44E1
:1004300069460090204600F014F904460020694601
:1004400000F022F920461CBD5702000010B5431CE5
:1004500002E010F8011B71B18107FAD14FF00132AF
:1004600002C88C1A8C4314EAC211F9D0C01A0A06C9
:1004700003D0C01E10BDC01A10BD0A0401D0801EDA
:1004800010BD0902FCD0401E10BD4FF0000200B5A7
:10049000134694469646203922BFA0E80C50A0E8A7
:1004A0000C50B1F12001BFF4F7AF090728BFA0E855
:1004B0000C5048BF0CC05DF804EB890028BF40F821
:1004C000042B08BF704748BF20F8022B11F0804F63
:1004D00018BF00F8012B704770477047704710B580
:1004E00000F00CFB006810BD10B5044600F006FBE0
:1004F000046010BD70B5044685690068C10601D569
:10050000302600E02026C00707D070BDD4E90121C5
:1005100030469047206A401C20626D1EF6D570BDA3
:1005200070B5044685690078C00707D170BDD4E96D
:10053000012120209047206A401C20626D1EF6D5C4
:1005400070BD09684A0501D540B27047C905FCD5A0
:1005500000B2704709684A0501D5C0B27047C905A5
:10056000FCD580B2704770B50C460546012A05D00F
:100570002878800600D5EA69002302E0012305E01F
:100580005B1C934202D2E05C0028F9D1A869E6180E
:10059000C01AA861286A184428622846FFF7AAFFF3
:1005A00004E0D5E9012114F8010B9047B442F8D3D7
:1005B0002846FFF7B5FF70BD2DE9F041064600243F
:1005C00010687529314616A510D0FFF7BAFF00282C
:1005D00002DA404213A507E031688A0701D512A567
:1005E00002E0490704D511A5012401E0FFF7B2FF9D
:1005F00000210A2206F1240709E0B0FBF2FCB0FB5F
:10060000F2F302FB1C00303078541846491C0028D5
:10061000F3D123462A463046BDE8F04100F0C0BA87
:10062000000000002D0000002B0000002000000052
:1006300011680268006A530501D508700AE0D30505
:1006400001D5088006E0130603D5C217C1E90002F0
:1006500000E008600120704701694A1C02610878C7
:10066000704700B58FB0CDE90131002105910549F2
:100670007944CDE903101146684600F029F90FB01E
:1006800000BD0000E5FFFFFF0A6802F8010B0A60E9
:10069000704700002DE9FF5F15468A460446DFF8E3
:1006A000AC80F8440027D8E900103E46CDE90010A0
:1006B00010E03AF816106A4602A800F0A3FE411CAA
:1006C00007D02178890603D5E269391891420DD8FF
:1006D0000744761C2078800602D5E069B84205DD23
:1006E000AE42E6DB3AF816000028E2D1A069C01B52
:1006F000A0612046FFF7FEFED8E90010CDE900100A
:10070000002017E03AF818106A4602A800F07AFEB6
:10071000B0F1FF3F81460BD000250DF1080B05E03D
:10072000D4E901211BF8050090476D1C4D45F7D316
:1007300008F10100B0428046E4DB206A38442062C0
:100740002046FFF7EDFEBDE8FF9F00006A65000050
:100750002DE9F0418046D21D22F007020025D2E9A2
:100760000002F52915A614D0011E72F1000106DA67
:100770000023D0EB030063EB020211A608E0D8F8D7
:1007800000108B0701D50FA602E0490701D50EA680
:1007900001251146002408F1240704E000F0B2F915
:1007A00030323A55641C50EA0102F7D12B463246EA
:1007B00021464046BDE8F04100F0F2B900000000DB
:1007C0002D0000002B0000002000000030B40021AC
:1007D00000F1240408E002F00705D208303542EAAF
:1007E0004372DB086554491C52EA0305F3D10468DF
:1007F000002310A2250707D5A40600D421B1C4699F
:1008000001230DA2641EC46130BC00F0C9B910B54B
:10081000044621461068FFF79DFE02462046BDE8CB
:1008200010400023D2E7D21D22F00701D1E90023B6
:10083000CCE700000000000030000000F0B40D46DE
:100840000188090502D5214C7C4402E01F4C7C4400
:100850000E34002100F1240608E002F00F0712090F
:10086000E75D42EA03721B097754491C52EA030709
:10087000F3D102780023120704D5702D06D009B1F8
:10088000022311342246F0BC00F08AB9012310344F
:10089000F8E770B504460D4621461068FFF75AFE8A
:1008A000024629462046BDE870400023C6E7D21D17
:1008B00022F00703D3E90023C0E70368126843F07E
:1008C000200303600823C3610023B7E7CC63000063
:1008D0002DE9F05F894604464FF0000ADFF874B155
:1008E000FB44C0F820A02046E1688847002874D067
:1008F000252806D0D4E901219047206A401C2062B7
:10090000F1E700265F462046E16888472028054633
:1009100007DB312D05D2781910F8200C08B10643F9
:10092000F1E7B00701D526F00406C4F81CA00027A3
:10093000C4F818A02A2D09D0284605F0C4FC38B305
:1009400004EB8708303DC8F8185019E059F8041B2B
:10095000204604EB87029161E1688847012F054634
:1009600018D1E069002820DA26F020061DE0D8F82A
:10097000180000EB800005EB40003038C8F8180084
:100980002046E1688847054605F09DFC0028EED129
:10099000012F0AD02E2D08D12046E16888477F1C00
:1009A0000546022F46F02006C4DBA069002803DAC2
:1009B000404246F00106A061F00701D026F0100683
:1009C0006C2D0BD0682D09D04C2D39D06A2D35D027
:1009D000742D35D07A2D33D016E038E0E1682F46FB
:1009E00020468847B842054609D16C2F26D04FF4DF
:1009F0008060E168064320468847054604E06C2F86
:100A00001AD04FF4807006430DB3A5F141001928A8
:100A100002D8203546F400664A462946204626601C
:100A20004E46FFF7FDFB80B101280BD0F61D26F0E6
:100A3000070000F1080956E74020E4E78020D8E7E6
:100A40000020D6E706F104094DE7284652E7206A60
:100A5000BDE8F09F5C6300000FB4002300B589B0CF
:100A60000CA900910B99CB60214B7B440693214B41
:100A70007B44079304236FF00042CDE901321E4A04
:100A80007A446B4608920246002006F093F809B0BB
:100A90005DF814FB70B506464FF0FF3015460C4666
:100AA000324686B00091CDE90101694600200490EC
:100AB00004A8FFF7D1FF02460498211825B108B118
:100AC000084600E020462860049800280DD0002A3F
:100AD00002DD0098884208D03246081B694600941F
:100AE000CDE9010404A8FFF7B7FF06B070BD000010
:100AF000570900006F0900000B0100000048704713
:100B00005C07002030B5B0F10A024FEA900E71F197
:100B100000034EEA817EB0EB0E0061EB91014FEADB
:100B2000101E4EEA017E10EB0E0041EB11114FEA50
:100B3000102E4EEA016E10EB0E0041EB11214FEA30
:100B4000104E4EEA014E10EB0E0041EB11414018E1
:100B500041F100014FEAD00040EA41704FEAD10173
:100B600010EB80054FEA810444EA907444EB0104E1
:100B70006D1944EB0404521BA3414FF0000348BF1E
:100B80000A3200D530BD401C41F1000130BD10B526
:100B9000044600F081FC0068005D00F0010010BD1B
:100BA0002DE9F0470D4699469246044600F1240887
:100BB0000168880604D5E06921F01001216000E099
:100BC0000120A84201DD471B00E00027A1697A1936
:100BD00002EB0900081AA0612078C00602D4204662
:100BE000FFF788FC002608E0D4E901211AF8060086
:100BF0009047206A401C761C20624E45F4DB20782A
:100C0000C0060AD52046FFF775FC06E0D4E90121AD
:100C100030209047206A401C2062381EA7F101074F
:100C2000F4DC07E0D4E9012118F805009047206AB8
:100C3000401C2062281EA5F10105F3DC2046FFF7C9
:100C40006FFC2078000602D50220BDE8F087012065
:100C5000FBE770472DE9FF4F0C461E464FF0FF376C
:100C60008BB0D2E90001DDF860800A908A46C1F3BA
:100C70000A5505B93D46002108464FF00000BAF17B
:100C8000000F00F4400005DA00EB80004FF4400153
:100C900001EA50004FEA9059B9F1010F00DDB94661
:100CA0000A9850EA4A000ED044F61050A5F2FF35DB
:100CB00045432F14B8F1000F1ED07542291E1EDDCA
:100CC000C9F100021CE0B8F1010F4FF0000001D0A3
:100CD000302103E0F24305E02154401CB042FBDB2D
:100CE00030460022002121540B99C1F80880C1E947
:100CF00000200FB0BDE8F08FBD1B6D1CDEE74A463B
:100D000000DA694206A800F08FFE06AB93E8070000
:100D100003AB83E8070050460A9901F093F98DE888
:100D20000700A0F500501F3800900398002D0ADD41
:100D300042F21F014A460844002303A90390684673
:100D400001F03EFC09E0A0F500504A461F380023A0
:100D500003A90390684601F05DFC8DE807000004DC
:100D6000000C03D04FF0FF30410800E01046B8F10E
:100D7000000F03D00022009215461EE0751E05D418
:100D8000FFF7C0FE303262556D1EF9D5B346012221
:100D9000084302D000227F1C04E02078302801D1D3
:100DA00000227F1E002A099784D01DE0112D07DA4A
:100DB000FFF7A8FE303262556D1C50EA0102F5D1F2
:100DC000084302D00098C8B10EE00021681E05E07B
:100DD000235C625C63542254401E491C8142F7DB51
:100DE000AB46A81B401E0990002004F80B000B988E
:100DF000099AC0F80880C0E9002B7AE711264FF065
:100E0000000857E72DE9F04F88460446D21D22F02E
:100E1000070191B0D1E90001CDE90A0105F0ECF834
:100E200002460B98C00F01D02D2007E020688107F3
:100E300001D52B2002E0202101EAC000032A0990FD
:100E400001D0072A05DB03464146204600F030FB6F
:100E50000BE12078800601D5E06900E00620B8F1BA
:100E6000650F814606D0B8F1660F18D0B8F1670F4C
:100E700070D131E00020B9F1110F009001DB112396
:100E800001E009F101030AAA01A90CA8FFF7E2FE9B
:100E9000DDE90C70002609F10105834647E00120D9
:100EA0004B4600904FF000470AAA01A90CA8FFF793
:100EB000D1FEDDE90DB00C995D46002610B909F1AF
:100EC00001000D18B9EB050003D4C0F1FF3609F19C
:100ED0000105A5EB09002BE0B9F1010F01DA4FF094
:100EE00001090020B9F1110F0090484601DD1123DE
:100EF00000E003460AAA01A90CA8FFF7ABFEDDE952
:100F00000C704D4600268346207800070AD4AB4576
:100F100000DA5D4601A8012D04DD411911F8011C1C
:100F2000302907D04F4502DA17F1040F04DA012007
:100F300082460FE06D1EEEE7002F02DCED1B3E4403
:100F400003E0781CA84200DD7D1CB81B00F1010AFB
:100F50004FF000472078000703D4AA4501DB4FF08B
:100F6000FF3A0021B7F1004F0DF143088DF843100F
:100F700024D002202B23002F01DA7F422D230A21C7
:100F8000021EA0F1010000DC5FB197FBF1FC97FBB2
:100F9000F1F201FB1C7C17460CF1300C08F801CD76
:100FA000EEE7A8F1010003702188090501D545216C
:100FB00000E06521A0F1010800F8011C09980FA9C3
:100FC000A1EB0807FF1D00B10120411901EBEA70F8
:100FD000A1693844081A401EA0612078C00602D4D6
:100FE0002046FFF787FA099828B1D4E901219047F4
:100FF000206A401C20622078C00622D52046FFF7D8
:1010000079FA1EE0002E04DBB34502DD01A8805D05
:1010100000E03020D4E901219047206A401C206282
:10102000761CAAF101005FEA000A0AD100F03CFA3E
:10103000C0680168405CD4E901219047206A401CE7
:101040002062281EA5F10105DCDC07E0D4E90121BE
:1010500018F8010B9047206A401C2062381EA7F147
:101060000107F3DC2046FFF75BFA032011B041E6ED
:101070002DE9F04F04460D46D21D22F0070089B03D
:10108000D0E900974846394604F0B6FF0246F80F0B
:1010900001D02D2307E02068810701D52B2302E032
:1010A000202101EAC0038DF820300BB1012000E0BF
:1010B0000020032A824601D0072A04DB2946204665
:1010C00000F0F6F93FE12078800601D40D2500E01C
:1010D000E569C7F30A560D2D49DA00214FEA175B7F
:1010E00008464FF00000002F00F4400007DA00EB44
:1010F00080004FF4400100EBD07001EA60008115E0
:10110000012901DD4FF0FF3100224FEA850CBCF1CF
:10111000180F06D31346ACF118004FF08052C240AE
:1011200003E04FF4801323FA0CF30CF10C0CBCF128
:10113000200F04D3ACF1200C09FA0CF001E007FAFF
:101140000CF000294FF0004801DD18B90FE00ED176
:1011500040450CD319EB02095F4121B9404502D14A
:101160009F4329EA0209BBEB175F00D0761C208859
:10117000000502D57B48784402E07A487844193863
:1011800008AA302302F80A30037C0AF10101002E7C
:101190000AF1020A53546A4602DC4FF0300101E0C2
:1011A0004FF031014FF001088DF8001002D0A6F287
:1011B000FF3603E059EA470100D06B4E002D02DCF8
:1011C0002178090704D54FF002082E218DF801106F
:1011D000C44600210BE0C7F303433F01C35C491C35
:1011E0006D1E02F80830052908F1010801DA002D0A
:1011F000F1DC00210CE000EB1973491C1B786D1E1B
:10120000082902F808304FEA091908F1010801DA43
:10121000002DF0DC21688B0602D516E0A8F101084C
:10122000E04505DD02EB080313F8013C302BF5D057
:10123000B8F1000F09DD02EB080313F8013C2E2B77
:1012400003D1090701D4A8F10108002D05DD3E21D5
:1012500002F808106D1E08F10108407C002E02F80B
:10126000080008F1010804DA2D20764202F808008F
:1012700002E02B2002F808000A214FF47A7086421F
:1012800008F101080BDB96FBF0F3303302F808306D
:1012900096FBF0F308F1010800FB136601E0642EF1
:1012A0000CDB642096FBF0F3303302F8083096FB39
:1012B000F0F308F1010800FB136601E00A2E06DBDB
:1012C00096FBF1F0303002F8080008F1010896FBB7
:1012D000F1F001FB1060303002F80800A16908F15C
:1012E000010808EB050202EB0A00081AA061207849
:1012F000C00602D42046FFF7FDF8216A08AE01EBD4
:101300000A00206204E0D4E9012116F8010B90479D
:10131000BAF1010AF7D22078C00602D52046FFF7BD
:10132000E9F86E4609E016F8010B3E280FD0D4E923
:1013300001219047206A401C2062B8F10108F2D2D6
:101340002046FFF7EDF809B00320BDE8F08F206AD2
:101350002844206203E0D4E90121302090476D1E2B
:10136000EBD3F8E7EA5A000002FCFFFF10B543692F
:1013700013B1AFF3008001E0FFF7F5F8012010BDD5
:10138000127800F124010A7000224A700122EDE770
:1013900011684FF0FF32E9E710B5436913B1AFF3BD
:1013A000008001E0FFF776F9012010BD128800F1FE
:1013B000240182840022C2840122EDE711684FF0EB
:1013C000FF32E9E7426842B1016811F8013B23B1FD
:1013D000521EC0E90012184670470121C160881EE4
:1013E000704742685AB1C368016843B983688B4249
:1013F00005D0491E521CC0E90012002070474FF072
:10140000FF30704770B516460C46054600F044F8AC
:10141000036893F80101012806D0FF2C0FD8185D4E
:1014200068B101202C7070BDD3F807013246214607
:1014300003F2071303442846BDE8704018474FF0F5
:10144000FF3070BD004870475C0700207546FFF70D
:10145000F9FFAE4605006946534620F00700854671
:1014600018B020B5FEF756FFBDE820404FF000064B
:101470004FF000074FF000084FF0000B21F007017C
:10148000AC46ACE8C009ACE8C009ACE8C009ACE8BF
:10149000C0098D467047000010B500F005F8001D2A
:1014A00010BD00BF3D510000004870477C07002080
:1014B0002DE9F0411F46044603260168072A01F47E
:1014C000006004DB08B116A505E016A503E008B12D
:1014D00015A500E015A521F010002060A069C01E30
:1014E000A0610FB1401EA0612046FFF703F84FB185
:1014F000D4E9012138469047206A401C2062C01C74
:10150000206206E0206AFAE7D4E9012115F8010B10
:101510009047761EF8D22046FFF702F8BDE8F0812A
:101520004E414E006E616E00494E4600696E660087
:101530002DE9FF4F06468BB00878FF2806D0491CDE
:101540002D2805D000244FF0000908E000200CE011
:101550000124F8E709EB8903491C00EB43090878EB
:10156000FF28F7D114B1C9F1000081461078002599
:101570002C46AA4629462D2801D02B2804D1521CDE
:101580002D2813D0002082468B461078FF280FD0DC
:101590004FF0000C0A21521CA5FB017804FB0181CD
:1015A00005FB0C11C5194BEB0104EEE70120EAE73E
:1015B000002108464FF00000BAF1000F02D000EB06
:1015C00080004008C0F38157012F01DD4FF0FF3745
:1015D0000E9955EA040009EB01080BD04FF00209FF
:1015E00018F5FA7F16DA4FEACA70002F706008DD2E
:1015F000012007E04FEACA70C6E900B00FB0BDE8AD
:10160000F08F00203060FFF779FAC0F800901821C1
:10161000084616E0B8F5FA7F18DD002F02DAF74821
:10162000784401E0F6487844D0E90010C6E900109B
:1016300040EACA707060FFF761FAC0F800901421A8
:1016400008460FB0BDE8F04F05F04DBA002108463E
:101650004FF00000B8F10001099002DAC7F1000272
:1016600000E03A4601DAC8F1000106A800F0DCF912
:1016700006AB93E8070003AB83E8070044F23E00A3
:101680005BEA04010090584604D144F21E012C4646
:101690005D460091210C0904014306D10099240400
:1016A00044EA15442D041039009104F07F410143B0
:1016B00006D10099240244EA15642D0208390091EC
:1016C00004F07041014306D10099240144EA1574E5
:1016D0002D01091F009104F04041014306D10099FA
:1016E000A40044EA9574AD00891E009104F0004105
:1016F000084304D100986D196441401E00904FF0DA
:1017000001033A466846B8F1000FCDE9014503A947
:1017100002DD00F094FF01E000F067FFBAF1000F76
:1017200004460D4601D084F00044002108464FF0E5
:101730000000099940F2FF77484010F00C0F07D1E4
:1017400024F00040284303D0C4F30A50B84212D119
:10175000FFF7D4F9C0F80090C4F30A50B8420AD198
:10176000A8487844D0E90010C6E9001004F0004110
:101770000843706042E7C6E900543FE72DE9FF4F98
:101780001F464FF0000A4FF0FF38454691B0D7E9A9
:101790000146CDF83CA0FFF787FEC0680168405CB9
:1017A0001090B96912986D1C8847396A814688473C
:1017B0000028F6D1B9F1FF3F0AD0002E24F4D064FE
:1017C00011DDB9F12B0F08D0B9F12D0F0BD102E0CB
:1017D000404615B013E744F48064B96912986D1C53
:1017E0008847761E8146600504A901D52D2000E0BA
:1017F0002B20002E01F1010B0DF130088DF81000A7
:101800003FDDB9F1690F08D0B9F1490F05D0B9F141
:101810006E0F02D0B9F14E0F1CD13B4601A80095C6
:1018200080E85002DDE912126FF0020005F0C6F9FF
:10183000C11CCED10EE0B96912986D1C8847814653
:101840001398761E44F4007405600F98401C002E17
:101850000F9016DDB9F1300FEDD0B9F1780F02D04D
:10186000B9F1580F0DD10F9801280AD13B46CDE9A7
:101870000054DDE91212001F029605F09DF9C11C0B
:10188000A7D1109989453ED144F0800406E0139910
:10189000681CAAF1010A44F400740860B9696D1C5F
:1018A0001298761E884730288146F0D02BE0109998
:1018B000894505D1200603D4761E44F0800418E043
:1018C000484604F000FD08B3761E0DF123018B4558
:1018D00044F4007408D2A9F130000BF8010B200683
:1018E00007D5AAF1010003E0200602D40AF10100A5
:1018F0008246A00502D51399681C0860B969129840
:101900006D1C88478146002ED1DC53E0002E51DD4E
:10191000B9F1650F02D0B9F1450F4BD1A00549D5FA
:10192000B9696D1C1298761E24F440748847002E05
:1019300081460CDD2B2804D0B9F12D0F07D144F4DA
:101940008074B96912986D1C8847761E8146E0053F
:1019500001D52D2100E02B2108F8011BCDF80080D6
:1019600021E0761E0DF13901884544F400740CD253
:10197000A9F1300010F0FF0088F8000002D10099B2
:10198000884509D908F1010806E0E00501D51E489F
:1019900001E042F20F708246B96912986D1C8847C7
:1019A000814613980560002E04DD484604F08BFC48
:1019B0000028D6D1F96912988847FF2053468BF842
:1019C000000088F8000000200A900B9004AA0CA9DF
:1019D0000AA8FFF7ADFDA00502D46FF00100F8E6FC
:1019E00014F0240F12D0E0071CD13868DDE90A1288
:1019F000031D3B600068C0E9001213E010570000AF
:101A000002570000C6550000F1D8FFFF0AA968463A
:101A100004F046FCE00705D13868009A011D3960E2
:101A2000006802602846D4E62DE9F0478146164654
:101A30008AB0354878440DC88DE80D0032487844A6
:101A4000801C03AC0DC884E80D0041F69B300844AF
:101A5000372190FBF1F290FBF1F5A5F1800501FB38
:101A600012041B3C02D56442012000E00020DFF894
:101A700098A080460027FA44AAF1BE0A0EE0E007CB
:101A80000AD03246684607EB470101230AEB810181
:101A900000F0C0FD8DE8070064107F1C002CEED123
:101AA000194F7F44AE3F19E0E80715D007EB04104B
:101AB0000DF1180A90E80E008AE80E00C068F042A6
:101AC00001D1981908903246012306A903A800F015
:101AD000A1FD03AB83E807006D10641C002DE3D16A
:101AE0004FF0010332466946B8F1000F03A802D057
:101AF00000F066FD01E000F08DFDC9E90001C9F8C4
:101B000008200AB0BDE8F087BC52000010B50446BA
:101B1000AFF300802046BDE81040FEF7E6BB0000B2
:101B20004FF0013C50F8042B51F8043B9A4221D16C
:101B3000A2EB0C03934313EACC1317D150F8042BF8
:101B400051F8043B9A4215D1A2EB0C03934313EADC
:101B5000CC130BD150F8042B51F8043B9A4209D115
:101B6000A2EB0C03934313EACC13DBD04FF000003D
:101B7000704700BFD01A01BAB1FA81F101F0180123
:101B800022FA01F0CB40C1F12001DBB2C0B2C01A91
:101B90002CFA01F3D11A914311EAC311E6D170472F
:101BA00001491820ABBEFEE7260002002DE9FF4FD9
:101BB0001F464FF03C0987B04FF00042DDE914109A
:101BC00001F10108DDF858A002EA4050039000201E
:101BD00005908346054604460490B969461E089858
:101BE0008847AAF1010A0290BAF1000F3BDD029882
:101BF0002E2815D0102100F017FA00282EDB4FF008
:101C0000010B0599014317D0B9F1000F0BDB4A46D0
:101C1000C11700F0F6F905430C43A9F1040905E0EA
:101C2000012004900BE008B145F00105012005906A
:101C3000049820B9361D02E0049800B1361FB96936
:101C4000089808F101088847BBF1000FAAF1010AC2
:101C50000290C9D00999C1F80080C5E702987028A0
:101C600008D0502806D0F96908988847BBF1000FC2
:101C700014D04FE0002002900120BBF1000F04902F
:101C800009D0B969089808F101088847AAF1010943
:101C9000B9F1000F07DCF969089888476FF0010077
:101CA0000BB0BDE8F08F2B2804D02D280CD14FF0BD
:101CB000FF300490B969089808F101088847A9F134
:101CC0000109B9F1000FE6DD411CE4D00A2100F062
:101CD000ABF90028DFDB029908F1010801EB810173
:101CE00000EB41000290B969089888470A2100F08A
:101CF0009BF9099AA9F10109B9F1000FC2F8008016
:101D000001DD0028E7DAF969089888470499029804
:101D100000FB016655EA040004D004F040410900CC
:101D200002D006E0039898E0A40044EA9574AD0060
:101D3000B61E04F00041080002D16D196441761E00
:101D4000159810F0240F03D04FF00B095C4803E006
:101D50004FF028096FF07D008246564507DAAAEB5E
:101D600006018944B9F1410F01DD4FF0410901201D
:101D70000021A9F1010200F044F9024628400B4677
:101D80002140084301D0012100E00021501E0291B2
:101D900043F1FF3128402140084301D0012000E0F9
:101DA00000200299834651EA0B014FD000210846DA
:101DB0004FF00000039900F4400039B100EB8000BF
:101DC0004FF4400100EBD07001EA6000801501285B
:101DD00002DD4FF0FF3000E013D0401C36D00298F7
:101DE00060B3BBF1000F0CD14A460120002100F086
:101DF00008F928402140084301D0012000E00020DC
:101E0000E0B101204A46002100F0FBF803464019EA
:101E10000A4661412D1A8C4111D3B9F1400F09DDF9
:101E2000159810F0240F02D0AAF1340603E0AAF1AD
:101E3000170600E0761C00254FF0004406E05B1E0C
:101E400042F1FF3220EA030521EA0204CAF101004F
:101E5000B04206DA1B490398084301900020009025
:101E60000EE0039AC4F3D321E80A0A43164940EA74
:101E700044500A433146CDE90002684604F019FA9D
:101E8000159810F0240F0BD01598C00715D138689D
:101E9000DDE90012031D3B600068C0E900120CE0A0
:101EA00002A8694604F0FCF91598C00705D1386806
:101EB000029A011D3960006802604046F0E60000A9
:101EC00002FCFFFF0000F07F0000F03F2DE9FF4F14
:101ED00092461D4685B04FF00041DDE9124BDDE929
:101EE00014727F1E01EA4B50414940F0FF4940EA1D
:101EF0000108002122F020004928049102D04E2838
:101F000028D04CE03BA0012607C88DE80700A9694E
:101F10000698641C88477F1E014606D41DF80600FB
:101F200018B121F0200181420BD0E9690698884759
:101F3000032E34D0082E32D06FF0010009B0BDE876
:101F4000F08F761C032E01D0082EE0D1601CCAF859
:101F50000000DCE7A9690698641C88477F1E2AD424
:101F600020F02000412826D1A9690698641C8847E2
:101F70007F1E20D420F020004E281CD1A96906988D
:101F8000641C88477F1E48F4002849F48009CAF879
:101F9000004001D4282806D0E969069888475FEAFE
:101FA000CB7012D022E0A9690698641C88477F1E76
:101FB00001D4002803DAE96906988847BCE7292894
:101FC000F1D1641CCAF80040E9E71BF0240F07D0E8
:101FD00028680499031D2B600068C0E9001805E01B
:101FE0002868021D2A600068C0F800902046A5E716
:101FF0000000F07F494E46494E4954590000000008
:102000007047B2F120030AD5C2F1200301FA02F1B0
:1020100020FA03F300FA02F041EA0301704700FAE4
:1020200003F14FF0000070473A2800D2303820F01A
:102030002002412A01D3A2F13700884201D34FF098
:10204000FF3070475FEA400C08BF91F0000F4FEA85
:102050008C234FEAC12243EA51514FEA1C5018BF6A
:1020600000F5F0404FEA300018BF41F000415FEA50
:102070006C5C00F02980BCF1FF3F08BF40F080405D
:102080007047130C06BF12044FF0100C4FF0000CF9
:10209000130E04BF12020CF1080C130F04BF12013F
:1020A0000CF1040C930F04BF92000CF1020CD30F3F
:1020B00004BF52000CF1010C11464FF00002A0F1D8
:1020C0001F00A0EB0C00704711F0004F08BF7047D5
:1020D00031F000413FF4D5AF0B0C06BF09044FF0BF
:1020E000100C4FF0000C0B0E04BF09020CF1080C91
:1020F0000B0F04BF09010CF1040C8B0F04BF890006
:102100000CF1020CCB0F04BF49000CF1010CCCF117
:102110002003A0EB0C0022FA03F302FA0CF241EACE
:10212000030100F10100704720F07F4C80EA0300BA
:1021300023F07F47ACEB070303F57C5300F000402E
:1021400003F1FF032DE980494FEA154B09B44FEA2B
:10215000144325EA0B4E24EA03480FF2042606EB4B
:10216000132749083E785FEA320203FB0667C7F58A
:10217000000707FB06F64FEA54374FEAD64606F14A
:10218000020607FB066CCCF1005C4FEA1C472CEA08
:10219000074C07FB06F40CFB06F504EB15464FEA6B
:1021A000961634BF00204FF000404FEAD13706FBAF
:1021B00007FC4FEA1C4C0CFB0BF7D21B03FB0CF784
:1021C00061EB07010CFB0EF7B0EB074072EB174217
:1021D0000CFB08F734BFA2EB0742B2EB074261EBFE
:1021E00017414FEA0C444FEA910706FB07FC4FEA00
:1021F0001C4C0CFB0BF7B0EBC74072EB573203FBE8
:102200000CF734BFA2EBC742B2EBC74261EB5731C8
:102210000CFB0EF7B0EBC70072EB57720CFB08F724
:1022200034BFA2EBC702B2EBC70261EB5771039F49
:102230004FEA816141EA921104EBCC044FEAD137B5
:102240004FEA826206FB07FC42EA90124FEA806086
:102250004FEA1C4C0CFB0BF7D21B03FB0CF761EB9A
:1022600007010CFB0EF7B0EB074072EB17420CFBBB
:1022700008F734BFA2EB0742B2EB074261EB17410C
:102280004FEA8C554FEA910704EB9C2406FB07FCB0
:102290004FEA1C4C0CFB0BF7B0EBC74072EB57320C
:1022A00003FB0CF734BFA2EBC742B2EBC74261EBB2
:1022B00057310CFB0EF7B0EBC70072EB57720CFBFB
:1022C00008F734BFA2EBC702B2EBC70261EB57714C
:1022D00015EB4C254FEA816141EA92114FEA826287
:1022E0004FEAD13742EA901206FB07FC44F10004A2
:1022F0004FEA80604FEA1C4C0CFB0BF7D21B03FB30
:102300000CF761EB07010CFB0EF7B0EB074072EB2B
:1023100017420CFB08F734BFA2EB0742B2EB0742AF
:1023200061EB174115EB1C154FEA813141EA9241EF
:102330004FEA823242EA90424FEA80304FEA0C760E
:1023400044F1000448EA03434EEA0B484FF0000E04
:10235000B2EB080C71EB030724BF624639464EEB23
:102360000E0E4FF0000B0018524149414BEB0B0B86
:10237000B2EB080C71EB03077BF1000B24BF624644
:1023800039464EEB0E0E4FF0000B001852414941FA
:102390004BEB0B0BB2EB080C71EB03077BF1000B63
:1023A00024BF624639464EEB0E0E51EA020718BFB3
:1023B00046F0010616EB0E7655F1000254F10001CD
:1023C00003D5BDE88901BDE80088BDE88901BDE805
:1023D0000048B619524141EB0101A3F101037047D6
:1023E00080807F7E7D7C7B7A797877767675747352
:1023F000727171706F6E6E6D6C6C6B6A6A69686811
:10240000676666656464636362616160605F5F5EA6
:102410005E5D5D5C5C5B5B5A5A595958585757561C
:102420005655555554545353525252515150505081
:102430004F4F4F4E4E4D4D4D4C4C4C4B4B4B4A4AD3
:102440004A49494948484847474747464646454517
:102450004544444444434343434242424241414150
:1024600046EA0646A3F570534FEA164646EA425638
:102470004FEAD22242EA415210B54FEAD121A3F1EC
:10248000010300F02FF820F0004000F1020C00F0F2
:10249000004701EB00501146BCF5006F40EA070011
:1024A00000D210BDBAF1000F0AD01CB503B44FF032
:1024B00004004FF004014FF000000FBCBDE81040D5
:1024C0004FF00001BBF1010FB9BF04484FF0FF31DD
:1024D0000348002140EA070010BD00BFFFFFEF7F67
:1024E0000000F07F002B9C4630D477002BD01CB529
:1024F0004FEA370703B44FF010004FF01001BAF164
:10250000000F06D0BCF1000FDCBF40F0080040F027
:1025100008014FF000000FBCBDE810400BF1010BAB
:10252000BBF1010F08BF5FEA170722BF12F10102DA
:1025300011F101014FF0004143F1000300F00040B0
:1025400043EA00007047F9D35708D0E746EA064649
:1025500013F1400F4FEA16461FDD13F1200FDFBFC6
:1025600016430A46002120335B42BED0C3F1200748
:1025700046EA064602FA07F74FEA164646EA070613
:10258000C3F1200722FA03F201FA07F721FA03F157
:102590004FF0000342EA0702A7E746EA020646EACE
:1025A00006464FEA164646EA0106BCBF46EA06461C
:1025B000360C4FF000034FF000024FF0000194E79B
:1025C0002DE9804C9A46934670B491E8380007C8CC
:1025D00031EA400C48BF34EA430C03D5FFF7A4FDB1
:1025E000FFF780FFF0BCBDE8008C2DE9804C9A46D7
:1025F000934670B491E8380007C831EA400C48BFF0
:1026000034EA430C03D5FFF78FFDFFF729FFF0BC39
:10261000BDE8008C2DE9804C9A46934670B491E851
:10262000380007C810F0804F08BF13F0804F03D167
:1026300000F01AF8FFF756FFF0BCBDE8008C2DE95A
:10264000804C9A46934670B491E8380007C810F061
:10265000804F08BF13F0804F03D100F005F8FFF75B
:10266000FFFEF0BCBDE8008C20F07F4780EA03004D
:1026700023F07F4C07EB0C03A3F57C5300F00040E4
:10268000A3F1FE0392F0000F00F0B38095F0000F6D
:1026900000F077802DE901494FEA11404FEA1446D6
:1026A00021EA004800FB06FC24EA064708FB06F680
:1026B00007FB08F800FB07F718EB06484CEB164C35
:1026C0004FEA124B18EB07484FEA15464CEB174000
:1026D00022EA0B4E0BFB06FC25EA06470EFB06F62C
:1026E00007FB0EFE0BFB07F71EEB064E4CEB164CE2
:1026F0004FF000061EEB074E4CEB174B18EB0B0888
:1027000040F1000018EB0E0B58EB000840F1000000
:102710008F1A4FF000013CBFC943661B14BFB5EBD5
:10272000040C00213CBFC943F61B4FEA17444EEA94
:102730008E0E27EA04454FEA1C4704FB07622CEA89
:10274000074C05FB07F70CFB05F604FB0CFC16EB2E
:10275000074642EB174216EB0C4642EB1C421BEBC2
:10276000060658EB0202414146EA9E0601D5BDE845
:102770000189B619524141EB0101A3F10103BDE802
:1027800001894FEA14454FEA114724EA054621EA38
:10279000074C05FB07F406FB07F70CFB06F105FBEE
:1027A0000CFC11EB074144EB17444FEA124711EBC5
:1027B0000C4144EB1C4422EA074C05FB07F206FBE4
:1027C00007F70CFB06F605FB0CFC16EB074642EB85
:1027D000174216EB0C4642EB1C456A1854F10001F7
:1027E00048BF7047B619524141EB0101A3F1010303
:1027F000704795F0000F37D04FEA11424FEA144767
:1028000021EA024624EA074C02FB07F106FB07F720
:102810000CFB06F402FB0CFC14EB074441EB1741E4
:102820004FEA154714EB0C4441EB1C4125EA074CD9
:1028300002FB07F506FB07F70CFB06F602FB0CFC98
:1028400016EB074645EB174516EB0C4645EB1C42CD
:10285000121951F1000148BF7047B619524141EBBE
:102860000101A3F1010370474FEA14454FEA1147F4
:1028700024EA054621EA074C05FB07F106FB07F7AA
:102880000CFB06F24FF0000605FB0CFC12EB0742B6
:1028900041EB174112EB0C4251EB1C4148BF704712
:1028A000921841EB0101A3F10103704700BFFEE75D
:1028B00010B5024800F0E9FA10BD0000AC0000209D
:1028C00010B5024800F0E1FA10BD0000AC00002095
:1028D00010B5024800F0D9FA10BD0000AC0000208D
:1028E00010B5024800F0D1FA10BD0000AC00002085
:1028F0002DE9F04188B006460F4615461C462B468A
:1029000001AA3946304600F0F6F98046039810B91E
:102910000198206001E002982060404608B0BDE8C0
:10292000F08170B588B005460C461646182102A8FD
:10293000FDF7ABFD002004900294082006900020D3
:1029400005908DF81C0001AB324602A9284600F024
:102950009CF808B070BD000010B5024800F0EAFD18
:1029600010BD0000E401002010B5024800F0E2FDB7
:1029700010BD0000440200200146087810381823DA
:10298000B0FBF3F20848805CC865032A05D90868E3
:102990006FF30900001D886503E008686FF3090004
:1029A0008865886D70470000F06B000801460020C4
:1029B0008A6A8B69CBB932B1012A0DD0022A03D0C1
:1029C000032A10D10EE000BFCB6A03F08073B3F18D
:1029D000807F00D1012007E0CB6AB3F1C07F00D136
:1029E000012001E000E000BF34E08B69B3F5005F37
:1029F0001AD132B1012A07D0022A03D0032A11D1F9
:102A00000AE000BF01200EE0CB6A03F08073B3F14F
:102A1000807F00D1012006E0CB6AB3F1C07F00D1F6
:102A2000012000E000BF15E032B1012A05D0022AE2
:102A300004D0032A0CD103E000BF00BF012008E04E
:102A4000CB6A03F08073B3F1807F00D1012000E0F6
:102A500000BF00BF704730B50468246824F48024A8
:102A600005682C60046863608468402C04D10468A5
:102A7000A2600468E16003E00468A1600468E260A9
:102A800030BD704772B600BFFEE7F0B504460D4694
:102A90001E4694F8207020688368A86800B900E09A
:102AA00000BF012F01D0022F7DD103F0806030B92B
:102AB00003F0006018B903F0805000287ED0C3F303
:102AC0000161012088403060A86860B9B5F800C095
:102AD000E86840EA4C5C206800F5C07000EB01102B
:102AE000C0F800C00FE0D5E901C040EACC00D5F83D
:102AF0000CC040EA0C00D4F800C00CF5C07C0CEB14
:102B0000011CCCF80000D5F810C0206800F5C0709A
:102B100000EB0110C0F804C0287D01280ED1206808
:102B200000F5C07000EB0110406840F4807C206824
:102B300000F5C07000EB0110C0F804C0D0790006A9
:102B400092F806C040EA0C4092F805C040EA0C201A
:102B500092F804C040EA0C00D4F800C00CF5C07C28
:102B60000CEB011CCCF80C00D078000692F802C0E7
:102B700040EA0C4092F801C040EA0C2092F800C0F4
:102B800040EA0C00D4F800C00CF5C07C0CEB011C32
:102B9000CCF80800206800F5C07000EB0110006858
:102BA00040F0010C01E00FE008E0206800F5C07083
:102BB00000EB0110C0F800C00020F0BD606A40F4D6
:102BC000001060620120F8E7606A40F480206062D3
:102BD0000120F2E7F0B504460A4694F82050012D92
:102BE00001D0022D7ED1424901F50071086840F004
:102BF00001000860086820F47C5008600868566A84
:102C000040EA06200860107D00F01F06012000FA4F
:102C100006F3C8699843C861A1F50071D069C8B9C5
:102C2000D1F80C029843C1F80C02908880B29689C2
:102C300040EA064601F51070576940F83760108881
:102C400080B2168940EA064601F51070576900EB1C
:102C5000C7004660D069012819D1D1F80C02184389
:102C6000C1F80C02908880B2168840EA064601F549
:102C70001070576940F83760908980B2168940EA31
:102C8000064601F51070576900EBC7004660906971
:102C900028B9D1F804029843C1F8040204E0D1F83D
:102CA00004021843C1F80402106928B9D1F81402CB
:102CB0009843C1F8140204E0D1F814021843C1F893
:102CC0001402106A012804D1D1F81C021843C1F87B
:102CD0001C02D1F8000220F00100C1F8000200201F
:102CE000F0BDFFE7606A40F4802060620120F7E7F2
:102CF00000640040704770B5044694F82050012DE0
:102D000001D0022D7DD151B92068C06800F00300C8
:102D100080B9606A40F400106062012070BD2068D4
:102D2000006900F0030028B9606A40F40010606296
:102D30000120F3E7206800F5D87000EB011000686F
:102D400000F004009060906840B9206800F5D870E9
:102D500000EB01100068400D106007E0206800F5EE
:102D6000D87000EB01100068C0085060206800F5C2
:102D7000D87000EB0110006800F00200D0602068FD
:102D800000F5D87000EB0110406800F00F00082833
:102D900002D30820106108E0206800F5D87000EB2D
:102DA0000110406800F00F001061206800F5D87035
:102DB00000EB0110406800F47F40000A9061206839
:102DC00000F5D87000EB01104068000C50612068DD
:102DD00000F5D87000EB011080681870206800F5CD
:102DE000D87000EB0110806800F47F40000A587032
:102DF000206800F5D87000EB0110806800F47F00B7
:102E000000E03CE0000C9870206800F5D87000EB02
:102E100001108068000ED870206800F5D87000EBB3
:102E20000110C0681871206800F5D87000EB01101F
:102E3000C06800F47F40000A5871206800F5D8701F
:102E400000EB0110C06800F47F00000C987120684E
:102E500000F5D87000EB0110C068000ED87131B9D0
:102E60002068C06840F020002668F06005E0206817
:102E7000006940F020002668306100204EE7606A5B
:102E800040F480206062012048E72DE9F05F0446AD
:102E90000025206846692068D0F80490206887687B
:102EA0002068D0F80CA02068D0F810B02068D0F8C6
:102EB000188006F00100002855D007F00100C0B1CD
:102EC00001202168886007F0020018B1204600F058
:102ED000C0FA0EE007F0040010B145F4006508E008
:102EE00007F0080010B145F4805502E0204600F0DC
:102EF000AFFA07F48070C8B14FF480702168886021
:102F000007F4007018B1204600F0A5FA0EE007F4AF
:102F1000806010B145F4005508E007F4006010B17E
:102F200045F4804502E0204600F094FA07F4803032
:102F3000C8B14FF480302168886007F4003018B1C0
:102F4000204600F08AFA0EE007F4802010B145F424
:102F5000004508E007F4002010B145F4803502E098
:102F6000204600F079FA06F0080038B10AF01000A7
:102F700020B145F4007510202168C86006F00400F7
:102F800040B10AF0080028B108202168C860204636
:102F900000F01CFA06F0020038B12068C06800F0AA
:102FA000030010B1204600F013FA06F0400038B1DB
:102FB0000BF0100020B145F48065102021680861F5
:102FC00006F0200040B10BF0080028B1082021686D
:102FD0000861204600F00AFA06F0100038B12068B7
:102FE000006900F0030010B1204600F000FA06F47A
:102FF000003040B109F0100028B11020216848606D
:10300000204600F0F5F906F4803040B109F00800E0
:1030100028B1082021684860204600F01FFA06F415
:10302000004088B309F0040078B306F4807020B142
:1030300008F0010008B145F0010506F4007020B168
:1030400008F0020008B145F0020506F4806020B1E6
:1030500008F0040008B145F0040506F40060A0B1D2
:1030600008F0700088B108F07000402817D006DC26
:1030700010280BD020280CD0302819D10CE0502873
:1030800010D0602814D110E01DE019E045F00805CB
:103090000FE045F010050CE045F0200509E045F093
:1030A000400506E045F0800503E045F4807500E04A
:1030B00000BF00BF2068806920F07000216888612F
:1030C0000420216848602DB1606A28436062204670
:1030D000FFF710FEBDE8F09F70B504460CB9012063
:1030E00070BD94F8200010B9204600F0AFF82068B9
:1030F000006840F001002168086000F009FD054605
:103100000DE000F005FD401B0A2808D9606A40F474
:1031100000306062052084F820000120E0E720688C
:10312000406800F001000028EBD02068006820F023
:1031300002002168086000F0EBFC05460DE000F09D
:10314000E7FC401B0A2808D9606A40F4003060623E
:10315000052084F820000120C2E72068406800F0C4
:1031600002000028EBD1207E012806D120680068EB
:1031700040F080002168086005E02068006820F0C9
:10318000800021680860607E012806D12068006800
:1031900040F040002168086005E02068006820F0E9
:1031A000400021680860A07E012806D120680068E0
:1031B00040F020002168086005E02068006820F0E9
:1031C000200021680860E07E012806D120680068A0
:1031D00020F010002168086005E02068006840F0D9
:1031E000100021680860207F012806D1206800684F
:1031F00040F008002168086005E02068006820F0C1
:10320000080021680860607F012806D120680068F6
:1032100040F004002168086005E02068006820F0A4
:10322000040021680860D4E90201084321690843C9
:10323000616908436168491E08432168C86100202C
:103240006062012084F82000002049E710B586B0B4
:103250000446142101A8FDF718F956492068884250
:1032600059D155480068401C534908600846006819
:1032700001280FD100BF002000905048006840F0A6
:1032800000704E4908600846006800F00070009029
:1032900000BF00BF00BF0020009048481038006801
:1032A00040F008004549103908600846006800F001
:1032B0000800009000BF00BF032001900220029090
:1032C00000200390032004900920059001A93C48A8
:1032D00000F010FB00220321132000F0A7FC1320B4
:1032E00000F090FC00220121142000F09FFC14202B
:1032F00000F088FC00220121152000F097FC152029
:1033000000F080FC00220121162000F08FFC162026
:1033100000F078FC4CE02B492068884248D100BF7F
:10332000002000902548006840F080602349086034
:103330000846006800F08060009000BF00BF1E4893
:103340000068401C1C4908600846006801280FD12D
:1033500000BF002000901948006840F00070174935
:1033600008600846006800F00070009000BF00BFD1
:1033700000BF0020009011481038006840F00200A3
:103380000E49103908600846006800F002000090FD
:1033900000BF00BF60200190022002900020039037
:1033A000032004900920059001A9074800F0A2FA23
:1033B00006B010BD0064004000000020403802400C
:1033C000000C02400068004000040240704700000A
:1033D00010B50446034801F011FF012002490870AE
:1033E00010BD00007C0000202400002070477047C2
:1033F000704770B5044694F82000012822D10220BD
:1034000084F820002068006820F00100216808602E
:1034100000F07EFB05460DE000F07AFB401B0A2819
:1034200008D9606A40F400306062052084F820000A
:10343000012070BD2068406800F001000028EBD139
:103440006062F6E7606A40F4002060620120F0E705
:10345000704770477047704770477047704770B546
:103460000446A56D00F054FB064694F8350002288A
:1034700008D08020606500BF002084F8340000BFC1
:10348000012070BD2068006820F0160021680860E7
:103490002068406920F0800021684861206C08B9EC
:1034A000A06C28B12068006820F00800216808603E
:1034B0002068006820F001002168086010E000F03A
:1034C00027FB801B05280BD920206065032084F88A
:1034D000350000BF002084F8340000BF0320D0E78F
:1034E0002068006800F001000028E8D194F85C1022
:1034F0003F208840A860012084F8350000BF0020EC
:1035000084F8340000BF00BFBBE7014691F83500E6
:10351000022803D08020486501207047052081F8EB
:1035200035000868006820F001000A68106000207B
:10353000F3E70000F8B50446002000908C480068CE
:103540004FF41651B0FBF1F7A56D2E6894F85C109E
:1035500008208840304098B12068006800F00400DE
:1035600070B12068006820F004002168086094F8B9
:103570005C1008208840A860606D40F00100606524
:1035800094F85C1001208840304068B120684069A0
:1035900000F0800040B194F85C1001208840A860E1
:1035A000606D40F00200606594F85C100420884073
:1035B000304068B12068006800F0020040B194F823
:1035C0005C1004208840A860606D40F004006065D5
:1035D00094F85C1010208840304078B32068006870
:1035E00000F0080050B394F85C1010208840A860E8
:1035F0002068006800F4802080B12068006800F432
:10360000002028B9206CC8B12046216C884715E0FD
:10361000A06C98B12046A16C88470FE02068006834
:1036200000F4807028B92068006820F00800216844
:103630000860206C10B12046216C884794F85C101B
:10364000202088403040002865D02068006800F0C5
:10365000100000285FD094F85C1020208840A860FB
:1036600094F83500052828D12068006820F016005D
:10367000216808602068406920F080002168486166
:10368000206C08B9A06C28B12068006820F0080000
:103690002168086094F85C103F208840A8600120F1
:1036A00084F8350000BF002084F8340000BF206D8E
:1036B00010B12046216D8847F8BD2068006800F4ED
:1036C000802080B12068006800F4002028B9606C78
:1036D00010B12046616C88471DE0E06BD8B12046F0
:1036E000E16B884717E02068006800F4807068B9D3
:1036F0002068006820F0100021680860012084F82C
:10370000350000BF002084F8340000BFE06B10B12A
:103710002046E16B8847606D38B3606D00F00100B2
:10372000F0B1052084F835002068006820F0010021
:103730002168086000BF0098401C0090B84200D982
:1037400005E02068006800F001000028F3D100BF08
:10375000012084F8350000BF002084F8340000BF49
:10376000E06C10B12046E16C884700BFA4E7000080
:10377000100000202DE9F0410446002500F0C8F9B2
:10378000074614B90120BDE8F081606A00B100BFAE
:10379000022084F8350000BF002084F8340000BF08
:1037A0002068006820F00100216808600AE000F04D
:1037B000AFF9C01B052805D920206065032084F8D7
:1037C0003500E0E72068006800F001000028EED135
:1037D0002068056821480540D4E901010843E168F3
:1037E00008432169084361690843A1690843E16905
:1037F0000843216A08430543606A042803D1D4E9D9
:103800000B0108430543206805602068456925F0E1
:103810000705606A0543606A04280DD1A06A054364
:10382000E06A48B12046FFF7C1F828B14020606542
:10383000012084F83500A6E7206845612046FFF79F
:103840009BF8064694F85C103F208840B06000204A
:103850006065012084F83500002094E73F8010F077
:103860002DE9F04704460D4616461F464FF0000866
:10387000D4F8589000BF94F83400012802D10220F7
:10388000BDE8F087012084F8340000BF94F83500CB
:10389000012825D1022084F83500002060653B46D0
:1038A000324629462046FFF7D6F894F85C103F20B0
:1038B0008840C9F808002068006840F016002168B8
:1038C0000860206C28B12068006840F0080021687A
:1038D00008602068006840F001002168086006E088
:1038E00000BF002084F8340000BF4FF002084046BB
:1038F000C6E70000F8B502460B460025002400206C
:103900000021E0E0012606FA01F51E6806EA05043A
:10391000AC4274D11E7906F00306012E04D01E7944
:1039200006F00306022E13D190684F000326BE4016
:10393000B0434F00DE68BE403043906050680126BF
:103940008E40B0431E79C6F300168E40304350605F
:103950001E7906F00306032E09D0D0684F00032617
:10396000BE40B0434F009E68BE403043D0601E79D9
:1039700006F00306022E13D1CF0802F1200656F8F6
:1039800027004E07F70E0F26BE40B0434F07FF0E2D
:103990001E69BE403043CF0802F1200646F82700DA
:1039A00010684F000326BE40B0431E7906F00306A0
:1039B0004F00BE40304310605E6806F44036002E73
:1039C0001DD000BF00260096414E366846F4804662
:1039D0003F4F3E603E46366806F48046009600BF84
:1039E00000BF3C4E8F0856F827008E07370F0F2672
:1039F000BE40B043384EB24202D100262EE061E014
:103A0000364EB24201D1012628E0354EB24201D1F4
:103A1000022623E0334EB24201D103261EE0324E8D
:103A2000B24201D1042619E0304EB24201D105263E
:103A300014E02F4EB24201D106260FE02D4EB242C5
:103A400001D107260AE02C4EB24201D1082605E03A
:103A50002A4EB24201D1092600E00A268F073F0F05
:103A6000BE4030431B4E8F0846F82700244E306876
:103A7000A0435E6806F4801606B12043204E3060F5
:103A8000361D3068A0435E6806F4001606B1204378
:103A90001B4E361D30601A4E361F3068A0435E68DC
:103AA00006F4003606B12043154E361F3060361F2F
:103AB0003068A0435E6806F4803606B12043104E9D
:103AC000083E3060491C1029FFF41CAFF8BD00000F
:103AD000443802400838014000000240000402401F
:103AE00000080240000C0240001002400014024096
:103AF00000180240001C0240002002400024024046
:103B0000083C01400AB1816101E00B048361704708
:103B10000148006870470000040000200348006866
:103B200003490978084401490860704704000020EF
:103B30000C00002010B50D48006840F400700B49DF
:103B400008600846006840F4806008600846006825
:103B500040F480700860032000F0A6F8002000F018
:103B600007F800F02BF8002010BD0000003C0240D8
:103B700070B504460E4800784FF47A71B1FBF0F04E
:103B80000C490968B1FBF0F5284600F01DFD08B1AD
:103B9000012070BD102C07D200222146501E00F0DB
:103BA00045F80548046001E00120F2E70020F0E755
:103BB0000C000020100000200800002008B500BF05
:103BC000002000900E48006840F480400C490860D6
:103BD0000846006800F48040009000BF00BF00BFAE
:103BE00000200090081F006840F08050091F086006
:103BF0000846006800F08050009000BF00BF08BD7C
:103C0000443802400146084600280DDB00BF00BFD3
:103C100000F01F0301229A4043099B0003F1E023B7
:103C2000C3F8002100BF00BF00BF70472DE9F05F5F
:103C300080460D461646002702F0F6F9074639463B
:103C40002A46334601F00700C0F1070ABAF1040F13
:103C500002D94FF0040A01E0C0F1070AD14600F191
:103C6000040ABAF1070F02D24FF0000A01E0A0F1F6
:103C7000030AD4464FF0010A0AFA09FAAAF1010A26
:103C80000AEA020A0AFA0CFA4FF0010B0BFA0CFBD3
:103C9000ABF1010B0BEA030B4AEA0B042146404649
:103CA00002F0CAF9BDE8F09F00BF00F00702064B22
:103CB00019684FF6FF031940044B0B4343EA0221F6
:103CC000014B196000BF70470CED00E00000FA05E1
:103CD00038B5002400BF002000901D48006840F067
:103CE00080501B4908600846006800F08050009032
:103CF00000BF00BF012017490864FFF709FF044611
:103D000007E0FFF705FF001BB0F57A7F01D903201C
:103D100038BD1148406800F48030B0F5803FF0D1E4
:103D200001200C494864FFF7F3FE044607E0FFF763
:103D3000EFFE001BB0F57A7F01D90320E8E70648C3
:103D4000406800F40030B0F5003FF0D10020DFE71C
:103D50004038024000000E420070004070B504463A
:103D60000D460CB9012070BD5848006800F00F00E6
:103D7000A84209D255490D700846006800F00F00AE
:103D8000A84201D00120EEE7207800F002000228CE
:103D90001DD1207800F00400042805D14C480068AB
:103DA00040F4E0504A490860207800F008000828F4
:103DB00005D14748006840F46040454908604448E0
:103DC000006820F0F000A1680843414908602078AD
:103DD00000F00100A8B36068012807D13C4808380A
:103DE0000068C0F34040B8B90120BCE76068022811
:103DF00002D06068032807D1354808380068C0F34E
:103E0000406048B90120AEE7314808380068C0F387
:103E1000400008B90120A6E72D48006820F0030003
:103E2000616808432A490860FFF772FE064609E008
:103E3000FFF76EFE801B41F28831884202D90320D1
:103E400091E707E02248006800F00C006168B0EBE1
:103E5000810FEDD11D48006800F00F00A84209D97C
:103E60001A490D700846006800F00F00A84201D002
:103E7000012078E7207800F00400042807D11448D6
:103E8000006820F4E050E168084311490860207898
:103E900000F00800082808D10D48006820F46040B0
:103EA000216940EAC1000A49086000F03FF808496A
:103EB0000968C1F30311074A515CC840064908600C
:103EC00006480068FFF754FE00204CE7003C024023
:103ED00008380240F86B000810000020080000209D
:103EE00001480068704700001000002000B5FFF78F
:103EF000F7FF04490968C1F38221034A515CC840B5
:103F000000BD000008380240086C000800B5FFF74B
:103F1000E7FF04490968C1F34231034A515CC840D4
:103F200000BD000008380240086C00082DE9F04789
:103F3000002400250026A1462548006800F00C005A
:103F400020B1042805D008283AD105E0DFF8849094
:103F500039E0DFF8849036E01D48001F006800F06B
:103F60003F041B48001F006800F4800078B11A4825
:103F70001749091F0968C1F38811A0FB01700146A8
:103F8000224600233846FCF7D7F905460EE01148D3
:103F90000F49091F0968C1F38811A0FB0170014690
:103FA000224600233846FCF7C7F905460848001F9B
:103FB0000068C0F30140401C4600B5FBF6F902E082
:103FC000DFF8109000BF00BF4846BDE8F087000052
:103FD000083802400024F400001BB700F8B504467E
:103FE0000CB90120F8BD207800F00100002874D041
:103FF000F948006800F00C0004280DD0F64800686D
:1040000000F00C00082813D1F348001F006800F4EA
:104010008000B0F5800F0BD1EF4808380068C0F37E
:104020004040002859D06068002856D10120D9E7C7
:1040300000BF6068B0F5803F08D1E74808380068E5
:1040400040F48030E449083908601EE06068B0F54B
:10405000A02F0DD1E0480838006840F48020DE49E8
:10406000083908600846006840F4803008600CE0B9
:10407000D9480838006820F48030D74908390860EA
:104080000846006820F48020086000BF606890B196
:10409000FFF73EFD054606E0FFF73AFD401B6428AA
:1040A00001D903209EE7CC4808380068C0F340409F
:1040B0000028F1D011E0FFF72BFD054606E0FFF7E1
:1040C00027FD401B642801D903208BE7C24808382C
:1040D0000068C0F340400028F1D1207800F00200D1
:1040E00002285FD1BC48006800F00C0058B1BA4803
:1040F000006800F00C0008281CD1B748001F0068B9
:1041000000F48000B0B9B44808380068C0F340003B
:1041100020B1E068012801D0012063E7AE480838EB
:10412000006820F0F800216940EAC100AA49083976
:10413000086037E0E06800B30120A8490860FFF795
:10414000E7FC054606E0FFF7E3FC401B022801D927
:10415000032047E7A04808380068C0F34000002863
:10416000F1D09D480838006820F0F800216940EA45
:10417000C10099490839086014E000209749086097
:10418000FFF7C6FC054606E0FFF7C2FC401B02280D
:1041900001D9032026E7904808380068C0F34000A2
:1041A0000028F1D1207800F0080008282CD160699F
:1041B000A8B101208A490860FFF7AAFC054606E07D
:1041C000FFF7A6FC401B022801D903200AE782481A
:1041D0006C300068C0F340000028F1D014E00020EB
:1041E0007F490860FFF794FC054606E0FFF790FC66
:1041F000401B022801D90320F4E677486C300068A0
:10420000C0F340000028F1D1207800F00400042819
:1042100070D1002770483830006800F0805090B9A5
:1042200000BF002000906C483830006840F080509B
:104230006949383108600846006800F080500090F5
:1042400000BF00BF01276748006800F48070B0B964
:104250006448006840F4807062490860FFF758FCC9
:10426000054606E0FFF754FC401B022801D9032055
:10427000B8E65C48006800F480700028F2D000BF07
:10428000A068012808D154486830006840F0010057
:104290005149683108601DE0A06805280DD14E48DD
:1042A0006830006840F004004B49683108600846F7
:1042B000006840F0010008600CE047486830006882
:1042C00020F001004449683108600846006820F089
:1042D0000400086000BFA068A8B1FFF719FC0546FC
:1042E00009E0FFF715FC401B41F28831884202D9F2
:1042F000032077E626E0384868300068C0F34000C5
:104300000028EED013E0FFF703FC054608E0FFF7B6
:10431000FFFB401B41F28831884201D9032061E64E
:104320002D4868300068C0F340000028EFD1012F0D
:1043300007D129483830006820F0805026493831AC
:10434000086000BFA069002845D02348006800F03D
:104350000C0008285DD0A069022845D100201F4923
:104360000866FFF7D5FB054606E0FFF7D1FB401BCB
:10437000022801D9032035E6174808380068C0F341
:1043800040600028F1D1D4E907010843616A40EA9E
:1043900081110122A06AC2EB500041EA00412C20A9
:1043A000005D41EA00600C49091F086001200B49CB
:1043B0000866FFF7ADFB054606E0FFF7A9FB401BCB
:1043C000022801D903200DE6034808380068C0F32D
:1043D00040600028F1D049E0083802400000474220
:1043E000800E474200700040002021490866FFF718
:1043F0008FFB054606E0FFF78BFB401B022801D927
:104400000320EFE51B480068C0F340600028F2D1AC
:104410002CE0A069012800D1E4E51648001D0668DB
:10442000A069012820D006F48001E06981421BD1F7
:1044300006F03F01206A814216D147F6C070304035
:10444000616AB0EB811F0FD106F440310122A06AEE
:10445000C2EB5000B1EB004F06D106F070612C208A
:10446000005DB1EB006F01D00120BBE50020B9E594
:10447000000047420038024010B504460CB9012044
:1044800010BD606A38B96068B0F5827F00D105E080
:104490000021E16102E00021216161610021A1624E
:1044A00094F8510028B9002084F85000204600F00C
:1044B00047F8022084F851002068006820F040008E
:1044C00021680860A08800F48270218901F4044109
:1044D0000843A18901F400610843217C01F0020135
:1044E0000843217D01F001010843218B01F4007193
:1044F0000843217F01F0380108432021095D01F0C4
:1045000080010843218D01F40051084321680860AF
:104510000421A06901EA104094F8241001F0100170
:104520000843216848602068C06920F40060216861
:10453000C86100206065012084F8510000209FE7D9
:1045400010B586B00446142101A8FBF79EFF1B4955
:104550002068884230D100BF0020009018480068D1
:1045600040F48010164908600846006800F4801086
:10457000009000BF00BF00BF00200090104814381A
:10458000006840F020000E491439086008460068B1
:1045900000F02000009000BF00BF4FF47070019049
:1045A0000220029000200390032004900520059033
:1045B00001A90448FFF79EF906B010BD0050014064
:1045C000443802400014024070B504462546681E77
:1045D000B0F1807F01D301200FE0681E4FF0E02191
:1045E00048610F214FF0FF3001F026FD00204FF011
:1045F000E021886107200861002070BD7047704786
:1046000030B502460B4600BF92F83C00012801D1AC
:10461000022030BD012082F83C0000BF022082F859
:104620003D00106844681068816824F070041868C0
:10463000044310684460184D1068A8421BD01068ED
:10464000B0F1804F17D0154D1068A84213D0144D0B
:104650001068A8420FD0134D1068A8420BD0124D1D
:104660001068A84207D0114D1068A84203D0104D21
:104670001068A84205D121F08001586801431068F4
:104680008160012082F83D0000BF002082F83C00DC
:1046900000BF00BFBDE70000000001400004004073
:1046A00000080040000C00400004014000400140B0
:1046B0000018004010B504460CB9012010BD94F854
:1046C0003D0028B9002084F83C00204600F026F880
:1046D000022084F83D00211D206801F0B9F8012076
:1046E00084F8460000BF84F83E0001213F200155B8
:1046F000402001554120015500BF00BF012084F832
:10470000420043200155442001554520015500BF7A
:10471000012084F83D000020D0E7000038B50446B1
:104720000E492068884217D100BF002000900C4835
:10473000006840F010000A4908600846006800F070
:104740001000009000BF00BF002211463620FFF786
:104750006DFA3620FFF756FA38BD00000010004011
:1047600040380240704770B504462068C56820682C
:10477000066906F00200022819D105F0020002289D
:1047800015D1401F216808610120207720688069C9
:1047900000F0030018B12046FFF7E4FF05E02046D3
:1047A00000F097F8204600F095F80020207706F0FA
:1047B0000400042819D105F00400042815D1C043D1
:1047C00021680861022020772068806900F4407029
:1047D00018B12046FFF7C6FF05E0204600F079F843
:1047E000204600F077F80020207706F0080008281F
:1047F00019D105F00800082815D1C04321680861C7
:10480000042020772068C06900F0030018B120461A
:10481000FFF7A8FF05E0204600F05BF8204600F017
:1048200059F80020207706F01000102819D105F063
:104830001000102815D1C043216808610820207796
:104840002068C06900F4407018B12046FFF78AFF65
:1048500005E0204600F03DF8204600F03BF800203F
:10486000207706F0010048B105F0010030B16FF08B
:10487000010021680861204600F02EF806F0800053
:10488000802809D105F08000802805D1C043216827
:1048900008612046FFF7B2FE06F04000402809D12B
:1048A00005F04000402805D1C0432168086120463A
:1048B00000F02AF806F02000202809D105F0200099
:1048C000202805D1C043216808612046FFF797FEE4
:1048D00070BD704770470000084A016891420CD1D2
:1048E00007490978491CC9B2054A11700A2904DB35
:1048F000002111700121034A11707047001000401F
:10490000A9000020A80000207047F8B504460D4615
:10491000164694F8420020282DD105B10EB9012089
:10492000F8BD0120206300206063324629462046FE
:1049300001F0BCFA0746206B012819D100BF002006
:10494000009020680068009020684068009000BFD8
:1049500000BF00BF00BF21680C3151E8001F41F0CB
:10496000100021680C3141E80002002AF3D100E078
:1049700001273846D4E70220D2E770B504460D4639
:104980002946204600F0CCFE70BD70472DE9F84F57
:104990000446206805682068C668206847694FF0AB
:1049A0000009CA4605F00F09B9F1000F0AD105F058
:1049B000200038B106F0200020B1204601F0E1F8D7
:1049C000BDE8F88FB9F1000F7CD007F0010018B9ED
:1049D00006F49070002875D005F0010030B106F49F
:1049E000807018B1606C40F00100606405F0040054
:1049F00030B107F0010018B1606C40F00200606453
:104A000005F0020030B107F0010018B1606C40F011
:104A10000400606405F0080048B106F0200010B9F9
:104A200007F0010018B1606C40F008006064606C31
:104A3000002846D005F0200028B106F0200010B173
:104A4000204601F09EF820684069C0F3801A606C2F
:104A500000F0080010B9BAF1000F2DD0204601F087
:104A600037F82068406900F04000402820D100BF9E
:104A700000BF2168143151E8001F21F04000216877
:104A8000143141E80002002AF3D100BFE06B50B1BD
:104A90007F48E16B0865E06BFEF737FD88B1E06B9E
:104AA000016D88470DE02046FFF76FFF09E009E040
:104AB0002046FFF76AFF04E02046FFF766FF00206C
:104AC00060647DE7206B012878D105F01000002894
:104AD00074D006F010000028FAD000BF002000902B
:104AE00020680068009020684068009000BF00BF08
:104AF0002068406900F04000402870D1E06B0068F9
:104B000040681FFA80F8B8F1000F58D0A08D4045DA
:104B100055DDA4F82E80E06BC069B0F5807F43D0EE
:104B200000BF00BF21680C3151E8001F21F48070E4
:104B300021680C3141E80002002AF3D100BF00BF18
:104B400000BF2168143151E8001F21F001002168E5
:104B5000143141E80002002AF3D100BF00BF00BFBA
:104B60002168143151E8001F21F040002168143100
:104B700041E80002002AF3D100BF202084F842005F
:104B80000020206300BF00BF21680C3151E8001FE6
:104B900021F0100021680C3141E80002002AF3D115
:104BA00000BFE06BFEF75BFC02206063A08DE28D2E
:104BB000801A81B22046FFF7E0FE0EE052E0A08DA1
:104BC00040450AD1E06BC069B0F5807F05D1022075
:104BD0006063A18D2046FFF7D0FEF1E6FFE7A08DD0
:104BE000E18D401A1FFA80F8E08DD0B3B8F1000FC4
:104BF00037D000BF00BF21680C3151E8001F21F4FD
:104C0000907021680C3141E80002002AF3D100BF06
:104C100000BF00BF2168143151E8001F21F00100DE
:104C20002168143141E80002002AF3D100BF20209E
:104C300084F842000020206300BF00BF21680C31CF
:104C400051E8001F21F0100021680C3141E80002FA
:104C5000002AF3D100BF0220606341462046FFF7DF
:104C60008CFEADE605F0800030B106F0800018B192
:104C7000204601F087F9A3E605F0400030B106F0C8
:104C8000400018B1204600F059FF99E600BF97E6B2
:104C90003159000810B504460CB9012010BDA069B7
:104CA00000B100E000BF94F8410028B9002084F86A
:104CB0004000204600F02AF8242084F841002068B3
:104CC000C06820F400502168C860204600F0D8FF7A
:104CD0002068006920F490402168086120684069DC
:104CE00020F02A00216848612068C06840F4005024
:104CF0002168C86000206064202084F8410084F8A6
:104D000042000020606300BFC8E7000010B586B015
:104D10000446142101A8FBF7B8FB3E4920688842ED
:104D200076D100BF002000903B48006840F400307E
:104D3000394908600846006800F40030009000BF60
:104D400000BF00BF0020009033481038006840F0DA
:104D500008003149103908600846006800F0080072
:104D6000009000BF00BF6020019002200290002050
:104D70000390032004900720059001A92748FEF71F
:104D8000B9FD2748274908604FF0006048600021BE
:104D900024488160C1604FF480610161002141615C
:104DA0008161C1614FF48031016200214162FEF7EF
:104DB000E1FC08B1FDF766FE00BF1A48E0638463BA
:104DC00000BF17481830184908604FF0006048606D
:104DD0004021154881600021C1604FF4806101616C
:104DE000002141618161C16101624162FEF7C2FC43
:104DF00008B1FDF747FE00BF0B48A063846300BF06
:104E0000002201212620FEF711FF2620FEF7FAFEE0
:104E100006B010BD0044004040380240000C024083
:104E200088600240E401002044020020704770477F
:104E3000F7B50446154694F8410020283ED1019864
:104E400000B10DB90120FEBD01982062A584E58462
:104E500000206064212084F841001948A16BC863D8
:104E60001848A16B08641848A16BC8640020A16BA6
:104E7000086501AE23681A1D31682B46A06BFEF74A
:104E8000EFFC30B110206064202084F84100012044
:104E9000D9E76FF040002168086000BF00BF2168BB
:104EA000143151E8001F41F080002168143141E8BD
:104EB0000002002AF3D100BF0020C4E70220C2E7AD
:104EC0006B5A0008C35A00084359000870477047DE
:104ED00000BFFEE710B50E480E4908600920486083
:104EE00000210C488160C1604FF4803101610901EB
:104EF0004161002101760121417600218176C17650
:104F000001774177FEF7E8F808B1FDF7BBFD10BD6A
:104F100000640040AC00002010B510481049086043
:104F20000920486081070E4881600021C1604FF46C
:104F30008031016109014161002101760121417641
:104F4000002181760121C176002101774177FEF7AA
:104F5000C3F808B1FDF796FD10BD000000680040E1
:104F6000D400002008B500BF002000900E48006863
:104F700040F400100C4908600846006800F4001076
:104F8000009000BF00BF002211461020FEF74EFE29
:104F90001020FEF737FE002211461120FEF746FED4
:104FA0001120FEF72FFE08BD3038024000B587B053
:104FB000142102A8FBF769FA00BF002001905748AE
:104FC000006840F00200554908600846006800F09B
:104FD0000200019000BF00BF00BF00200190084602
:104FE000006840F0010008600846006800F0010019
:104FF000019000BF00BF00BF00200190084600687C
:1050000040F0080008600846006800F008000190C1
:1050100000BF00BF00BF002001900846006840F0BC
:10502000800008600846006800F08000019000BF22
:1050300000BF00BF002001900846006840F040001B
:1050400008600846006800F04000019000BF00BF03
:1050500000BF002001900846006840F02000086072
:105060000846006800F02000019000BF00BF00BFAC
:10507000002001900846006840F0100008600846D3
:10508000006800F01000019000BF00BF00223C212A
:105090002348FEF737FD00224FF4FF712148FEF749
:1050A00031FD00224FF400611F48FEF72BFD002266
:1050B0004FF480411D48FEF725FD3C200290012061
:1050C000039000200490059002A91548FEF712FCF9
:1050D0004FF4FF700290012003900020049005908F
:1050E00002A91048FEF706FC4FF400600290012070
:1050F000039000200490059002A90B48FEF7FAFBEC
:105100004FF480400290012003900020049005900D
:1051100002A90648FEF7EEFB07B000BD303802409A
:10512000001C02400018024000100240001402401F
:1051300010B50E480E4908604FF482704860002197
:105140000B488160C160016141614FF48021816140
:105150000021C1610162416281620A21C162FFF7DF
:105160008BF908B1FDF78EFC10BD00000050014026
:10517000FC0000201CB50020009001900E480F4953
:1051800008605920486000210C48816040F2E731F6
:10519000C16000218161FFF78DFA08B1FDF772FC53
:1051A00000200090019069460448FFF729FA08B1F1
:1051B000FDF768FC1CBD00000010004054010020F9
:1051C00010B50B480B4908604FF4E13048600021EE
:1051D00008488160C16001610C2141610021816149
:1051E000C161FFF757FD08B1FDF74CFC10BD000091
:1051F000004400409C01002000BFFEE72DE9FE4373
:1052000004460CB1206810B90120BDE8FE830020DF
:105210000090019002AB6A4600212068FDF768FB10
:1052200007460FB13846F0E70298B0F5007F03D982
:105230000298B0F5027F01D90120E6E70298A0F5B7
:105240000070A0609DF801009DF8001040EA012563
:105250009DF803009DF8021040EA01289DF8050022
:105260009DF8041040EA01269DF806004FFA80F9E7
:1052700000EE105AB8EEC00ADFED0F0A20EE200A49
:10528000DFED0E0A80EE201A84ED041A0FFA88F082
:10529000A08200EE106AB8EEC00AF3EE040A20EE17
:1052A000200ADFED070A80EE201A84ED061A84F842
:1052B00020900020A9E700000000B44300F8FF455B
:1052C0000000804600B58BB001202BE000EB4001D0
:1052D00001EB0011284A02EB810100EBC002274BD1
:1052E00003EB82025160002100EB400202EB00124E
:1052F000214B03F8221000EBC001204A02EB810190
:1053000088601F4900EBC0021C4B43F82210B3EE2B
:10531000030A00EBC0011A4602EB810181ED030A8A
:10532000411CC8B20828D1DD282101A8FBF7ADF83F
:105330000020069005904FF48040019000200290DC
:105340004FF4FC400390FF200490002007900120C0
:105350000890099001A90A48FDF73CFC0848FEF7AF
:1053600048F807480068406940F0020004490968AD
:1053700048610BB000BD00006C030020180600203F
:10538000AC00002070B504460D46B5F5804F01DD38
:105390004FF4804515F5804F00DA1C4DA0680128B8
:1053A00013D3A068042810D84FF400760122A06817
:1053B000C2EB4000164A1554C5F307210222A0682B
:1053C000C2EB4000124A11541AE0A068052815D318
:1053D000A068082812D840F2FF16A068001F01221A
:1053E000C2EB40000A4A1554C5F30721A068001F0C
:1053F0000222C2EB4000064A115401E0012070BDB8
:10540000034A31462068FDF78CFAF8E700C0FFFF39
:10541000A000002010B52DED028B0446B0EE408AAE
:105420000CB1206818B90120BDEC028B10BD9FEDB6
:10543000180AB4EEC08AF1EE10FA03DD9FED140AEB
:10544000B0EE408A9FED130AB4EEC08AF1EE10FA76
:1054500003D29FED100AB0EE408A606880ED018AA9
:10546000B4F9140000EE100AB8EEC00A606880EDCE
:10547000020A606800F078F8606890ED030ABDEEFB
:10548000C00A10EE101A2046FFF77CFF0020CBE781
:105490000000C8430000C8C300BFFEE7F0B52DED13
:1054A000028B85B004460D4628784B2804D0012095
:1054B00005B0BDEC028BF0BDAE1C14216846FAF7B6
:1054C000E4FF002700BF30780DF80700761C307825
:1054D0000A28F8D16878642820D0692811D070286B
:1054E00002D0742834D126E0684600F035FEB0EED4
:1054F000408AF0EE608A51EC180B01F087F8E06109
:1055000028E0684600F028FEB0EE408AF0EE608A9F
:1055100051EC180B01F07AF820621BE0684600F0AD
:105520001BFEB0EE408AF0EE608A51EC180B01F0E1
:105530006DF860620EE0684600F00EFEB0EE408A44
:10554000F0EE608A51EC180B01F060F8606001E049
:105550000120ADE700BF0020AAE780ED070AC0EDFB
:10556000080A80ED091A70470178012903D190EDEE
:10557000040A80ED050A90ED0A0A80ED0B0A90ED11
:10558000010AD0ED020A30EE600A80ED0A0A90EDC1
:105590000A0AB5EEC00AF1EE10FA02DB90ED0A0A33
:1055A00003E090ED0A0AB1EE400AD0ED110AB4EE24
:1055B000E00AF1EE10FA03D29FED410A80ED0A0AEB
:1055C00090ED0D0AD0ED0A0A30EE200A80ED0D0AAA
:1055D00090ED0D0AD0ED0E0AB4EEE00AF1EE10FAED
:1055E00003DD90ED0E0A80ED0D0A90ED0D0AD0ED71
:1055F0000E0AF1EE600AB4EEE00AF1EE10FA05D2FE
:1056000090ED0E0AB1EE400A80ED0D0A0178E1B985
:1056100090ED070AD0ED0A0A20EE200AD0ED080A24
:1056200090ED0D1A00EE810AD0ED0B0A90ED0A1AEA
:1056300070EEC10A90ED091A01EE200AD0ED120AAF
:1056400030EE200A80ED030A1EE0017801291BD10B
:1056500090ED070AD0ED0A0A20EE200AD0ED080AE4
:1056600090ED0D1A00EE810AD0ED050A90ED041AB6
:1056700070EEC10A90ED091A01EE200AD0ED120A6F
:1056800030EE200A80ED030A90ED030AD0ED0F0AF8
:10569000B4EEE00AF1EE10FA03DD90ED0F0A80EDB2
:1056A000030A90ED030AD0ED100AB4EEE00AF1EE21
:1056B00010FA03D290ED100A80ED030A7047000043
:1056C00000000000704770470FB430B59BB004462F
:1056D00020A8019002A8019A1F99FAF7A5FE0020C0
:1056E000019002A8FAF7B2FE85B22A4602A9204626
:1056F000FFF79EFB1BB030BC5DF814FB10B50446F1
:10570000642206492046FFF700F9E06B0068006854
:1057100020F00800E16B0968086010BD0803002054
:1057200070B504460D460C492068884213D101200B
:105730000A49087000200A49485564220948FFF7C1
:10574000E4F80848C06B0068006820F008000549CC
:10575000C96B0968086070BD004400402C0000203F
:10576000080300209C01002010B5FEF7D7F910BDFA
:1057700000B593B0302107A8FAF787FE142102A8DC
:10578000FAF783FE00BF002001902648006840F031
:105790008050244908600846006800F0805001905D
:1057A00000BF00BF00BF002001901F48006840F408
:1057B00040401D4908600846006800F440400190E0
:1057C00000BF00BF012007900004089002200D9048
:1057D00041050E9106210F91B421109102211191E2
:1057E0000421129107A8FEF7F9FB08B1FDF74AF969
:1057F000FEF76EFA08B1FDF745F90F20029002207E
:105800000390002004904FF4A05005904FF4805076
:105810000690052102A8FEF7A1FA08B1FDF732F9BA
:1058200013B000BD403802400070004003480068DB
:1058300040F47000014908607047000088ED00E006
:1058400010B50248FEF78FFF10BD00005401002084
:1058500010B502682B4B98420ED0B0F1804F0BD0A0
:10586000294B984208D0294B984205D0284B9842A2
:1058700002D0284B984203D122F070024B681A43A1
:10588000204B984220D0B0F1804F1DD01E4B984243
:105890001AD01E4B984217D01D4B984214D01D4B66
:1058A000984211D01C4B98420ED01C4B98420BD002
:1058B0001B4B984208D01B4B984205D01A4B98427C
:1058C00002D01A4B984203D122F44072CB681A439B
:1058D00022F080034C6943EA04028B68C3620B68C0
:1058E0008362084B984202D00A4B984201D10B695F
:1058F0000363036843F00403036001234361026010
:1059000010BD0000000001400004004000080040FD
:10591000000C0040000401400040014000440140F0
:105920000048014000180040001C004000200040DA
:1059300070B50446A56B0020E8852846FFF725F8DA
:1059400070BD70B506460025B46B20684069C0F391
:10595000C01594F84100212805D125B10020E0842C
:10596000204600F0FBF820684069C0F3801594F8E9
:105970004200222805D125B10020E085204600F014
:10598000A7F8606C40F0100060642046FEF7FDFF51
:1059900070BD70B50546AC6B2868006800F4807077
:1059A000002842D1E08500BF00BF21680C3151E8DA
:1059B000001F21F4807021680C3141E80002002AA8
:1059C000F3D100BF00BF00BF2168143151E8001FB0
:1059D00021F001002168143141E80002002AF3D1CE
:1059E00000BF00BF00BF2168143151E8001F21F043
:1059F00040002168143141E80002002AF3D100BFC1
:105A0000202084F84200206B01280ED100BF00BF87
:105A100021680C3151E8001F21F0100021680C3181
:105A200041E80002002AF3D100BF00206063206B30
:105A3000012804D1A18D2046FEF79FFF02E02046F9
:105A4000FFF7F4F970BD70B50546AC6B01206063DB
:105A5000206B012805D1A08D41082046FEF78DFF5F
:105A600002E02046FFF7E3F970BD70B50546AC6B68
:105A70002868006800F48070F8B90020E08400BF56
:105A800000BF2168143151E8001F21F08000216817
:105A9000143141E80002002AF3D100BF00BF00BF6B
:105AA00021680C3151E8001F41F0400021680C31A1
:105AB00041E80002002AF3D102E02046FFF706FA8F
:105AC00070BD70B50446A56B2846FFF700FA70BD9F
:105AD00000BF00BF02680C3252E8002F22F4907120
